:100000000110020000000000A01D0000FF00000021
:10001000020DB843D48043F48022FF0217597E03B7
:100020009000BFE06F6007EFF0E49000C2F0900036
:10003000BFE07001FE9000C2E004F0C39E50037F59
:1000400000229000C27403F07F01220218D4E4FB66
:10005000EB25E025E024ACF812025DEB25E025E07D
:1000600024BCF81202760BBB04E6220210FCBB0192
:100070000689828A83E0225002E722BBFE02E32245
:1000800089828A83E49322EF8DF0A4A8F0CF8CF0CC
:10009000A428CE8DF0A42EFE22BC000BBE0029EFBA
:1000A0008DF084FFADF022E4CCF875F008EF2FFF5F
:1000B000EE33FEEC33FCEE9DEC984005FCEE9DFE2D
:1000C0000FD5F0E9E4CEFD22EDF8F5F0EE8420D274
:1000D0001CFEADF075F008EF2FFFED33FD400798E3
:1000E0005006D5F0F222C398FD0FD5F0EA22BB01ED
:1000F0000A89828A83E0F5F0A3E022500687F0099E
:10010000E71922BBFE07E3F5F009E3192289828A89
:1001100083E493F5F074019322E88FF0A4CC8BF084
:10012000A42CFCE98EF0A42CFC8AF0EDA42CFCEAB3
:100130008EF0A4CDA8F08BF0A42DCC3825F0FDE9ED
:100140008FF0A42CCD35F0FCEB8EF0A4FEA9F0EBE3
:100150008FF0A4CFC5F02ECD39FEE43CFCEAA42DEF
:10016000CE35F0FDE43CFC2275F008758200EF2FDF
:10017000FFEE33FECD33CDCC33CCC58233C5829B6D
:10018000ED9AEC99E58298400CF582EE9BFEED9A93
:10019000FDEC99FC0FD5F0D6E4CEFBE4CDFAE4CC2F
:1001A000F9A88222B800C1B90059BA002DEC8BF031
:1001B00084CFCECDFCE5F0CBF97818EF2FFFEE33EE
:1001C000FEED33FDEC33FCEB33FB10D70399400419
:1001D000EB99FB0FD8E5E4F9FA227818EF2FFFEE40
:1001E00033FEED33FDEC33FCC933C910D7059BE971
:1001F0009A4007EC9BFCE99AF90FD8E0E4C9FAE4CD
:10020000CCFB2275F010EF2FFFEE33FEED33FDCC6B
:1002100033CCC833C810D7079BEC9AE899400AED55
:100220009BFDEC9AFCE899F80FD5F0DAE4CDFBE4FD
:10023000CCFAE4C8F922EB9FF5F0EA9E42F0E99D82
:1002400042F0E89C45F022E8600FECC313FCED138C
:10025000FDEE13FEEF13FFD8F122E8600FEFC3337A
:10026000FFEE33FEED33FDEC33FCD8F122E6FC0863
:10027000E6FD08E6FE08E6FF22E6FB08E6F908E6EA
:10028000FA08E6CBF822ECF608EDF608EEF608EFF1
:10029000F622ECF208EDF208EEF208EFF222D0833B
:1002A000D082E493F608740193F608740293F6087A
:1002B000740393F6740473D083D082E493F20874C9
:1002C0000193F208740293F208740393F2740473B6
:1002D000D083D082F8E4937012740193700DA3A3BD
:1002E00093F8740193F5828883E4737402936860D1
:1002F000EFA3A3A380DF8A838982E4738E558F5690
:10030000E4F558F559F55A9000D2E0F559A3E0F517
:100310005AE4F5579000C0E070139000C2E0B403B7
:100320000CD37896E2940018E29400401EE557251D
:10033000E02485F8E4F208F2E55725E025E0246D95
:10034000F81202A700000000020402E55725E0248D
:1003500086F9E3700219E3701AE55725E02400F8E6
:10036000E2FE08E2FFE55725E0247DF8EEF208EF13
:10037000F28057E55725E0247DF8E2FE08E2FFE52C
:100380005725E02400F8E2FC08E2FD121C4BD3EFF5
:10039000955AEE95594033E55725E02400F8E2FEE2
:1003A00008E2FFE55725E0247DF8EEF208EFF2E5DC
:1003B0005725E02485F8E4F208F2E55725E025E02A
:1003C000246DF81202A700000000E55725E0240084
:1003D000F8E2FE08E2FFE55725E025E0246DF8C0CD
:1003E00000E2FB08E2F908E2FA08E2CBF8E4FCFDDF
:1003F000EB2FFFEA3EFEED39FDEC38FCD000120297
:1004000082E55725E02485F808E22401F218E23459
:1004100000F20557E557C394045003020304E4F5C2
:1004200057E55725E02486F9C3E3955619E395551A
:10043000400205580557E557B404E6E558640460E2
:10044000030204FC74FF9000D4F0A3F0E4A3F0A333
:10045000F0F557E55725E02485F8E2FE08E2FF4E67
:1004600070030204DFE4FCFDC004A905AA06AB0783
:10047000E55725E025E0246DF8E2FC08E2FD08E2FE
:10048000FE08E2FFD0001201948E5B8F5CD39000D7
:10049000D5E0955C9000D4E0955B4007E55BF0A368
:1004A000E55CF0C39000D7E0955C9000D6E0955BEA
:1004B0005007E55BF0A3E55CF0E55725E02408F87C
:1004C000E55BF208E55CF2E55725E02485F8E4F207
:1004D00008F2E55725E025E0246DF81202A7000098
:1004E0000000C2080557E557640460030204439006
:1004F00000D4E0FEA3E0FFA3E0FCA3E0FD121C4B50
:10050000D3EF9464EE9400400312187D22E4F55377
:10051000E55325E025E024BCF8C00012025DC007C9
:1005200074722553F8E6FFFBE4FAF9F8D0071201DC
:1005300009D000120276E55325E025E024BCF8C07E
:100540000012025D7807120237D000120276E553DE
:1005500025E025E024BCF812025DEC4D4E4F60769C
:10056000E55325E025E0249CF812025DE55325E0E3
:1005700025E024BCF8120269C312022650037F034F
:1005800022E55325E025E0249CF8120269C000E52D
:100590005325E025E024BCF812025DD000C3EF9B98
:1005A000F557EE9AF556ED99F555EC98F554E47F2C
:1005B000FF7EFFFDFCAB57AA56A955A854C31202F3
:1005C0002640037F0322E55325E02400F8E556F298
:1005D00008E557F28015E553C39404500BE5532505
:1005E000E02410F8E4F208F27F03220553E5536497
:1005F000046003020500E4F553E55325E02408F800
:10060000E2FE08E2FFE55325E02400F8E2FC08E200
:10061000FDD39FEC9E401EE55325E02408F8E2FE42
:1006200008E2FFC3ED9FFFEC9EFEE48F5B8E5AF560
:1006300059F5588009E4F55BF55AF559F558E55335
:10064000C3940440030206FBAF5BAE5AAD59AC58ED
:10065000780712024A8F5B8E5A8D598C589000BFD2
:10066000E06040E55325E025E02440F8E2FC08E2A4
:10067000FD08E2FE08E2FFE47B03FAF9F812010943
:10068000EF255BFFEE355AFEED3559FDEC3558FC94
:100690007802120237E55325E025E02440F81202E3
:1006A000828043E47F03FEFDFCAB5BAA5AA959A8F4
:1006B00058120109E55325E025E02440F8E2FB0843
:1006C000E2F908E2FA08E2CBF8EB2FFFEA3EFEE996
:1006D0003DFDE83CFC7802120237E55325E025E0B9
:1006E0002440F8120282E55325E025E02440F8E298
:1006F000FC08E2FD08E2FE08E2FF7807120237E597
:100700005325E02410F8EEF208EFF20553E55364A8
:100710000460030205E97F0722E4F556F555E55527
:1007200025E025E0246DF81202A700000000055521
:10073000E555B404E9121A54E4F555E55525E025CC
:10074000E0246DF8C000E2FC08E2FD08E2FE08E2E9
:10075000FFE55525E025E024ACF8120269EF2BFFF8
:10076000EE3AFEED39FDEC38FCD000120282055560
:10077000E555B404C60556E556C3940540B7E4F5FF
:1007800055AF56E4FCFDFEC004A905AA06AB07E57B
:100790005525E025E0246DF8E2FC08E2FD08E2FEC4
:1007A00008E2FFD0001201948F5A8E598D588C5751
:1007B000AB5AAA59A958A857C00074722555F8E633
:1007C000FFE4FCFDFED0001201098F5A8E598D58AE
:1007D0008C5778071202378F5A8E598D588C57E4F0
:1007E0007FE87E03FDFCAB5AAA59A958A857D3123B
:1007F00002264030E55A2418FFE55934FCFEE5583E
:1008000034FFFDE55734FFFCE55525E025E0249C49
:10081000F8120276E55525E02400F87403F2087416
:10082000E8F2801EE55525E025E0249CF812028EB2
:1008300000000000E55525E02400F8E559F208E540
:100840005AF2E55525E025E0246DF81202A70000D4
:100850000000E55525E02485F8E4F208F2E555C3EB
:1008600094045033E55525E02400F8E2FE08E2FF49
:10087000E55525E02408F8EEF208EFF2E55525E00D
:100880002410F8E4F208F2E55525E025E02440F8CC
:100890001202A7000000000555E55564046003023C
:1008A00007712285BA5B53BA0F43BA10E4F555E5D8
:1008B0005525E025E024ACF812028E00000000056A
:1008C00055E555B404E975550575ABFF121B88E471
:1008D000F556E55625E025E024ACF8C00012025D8F
:1008E000C004C005C006C00774CC2556F8E675F0F4
:1008F00003A42465F582E4341CF583E493FB7401BE
:1009000093FA740293F91202E6A804A905AA06ABA9
:1009100007D007D006D005D004EF2BFFEE3AFEED4E
:1009200039FDEC38FCD0001202760556E556C3942A
:1009300004409FE4F5AB121B88E4F556E55625E02C
:1009400025E024ACF8C00012025DC004C005C0065A
:10095000C00774CC2556F8E675F003A42465F5822B
:10096000E4341CF583E493FB740193FA740293F965
:100970001202E6A804A905AA06AB07D007D006D044
:1009800005D004C3EF9BFFEE9AFEED99FDEC98FCB9
:10099000D0001202760556E556C39404409E1555C4
:1009A000E55560030208B9E4F556E4755A10755927
:1009B00027F558F557AF5AAE59AD58AC57780712CE
:1009C000024A8F5A8E598D588C57E55625E025E0FE
:1009D00024ACF81202691201948F5A8E598D588CEA
:1009E0005774722556F8A6070556E556B404BB851C
:1009F0005BBA227556FF30040B753A00753B0075E3
:100A00003C328009753A00753B00753C2AE4F55B81
:100A1000AB3AE53CF92402F53CE53BFA3400F53B02
:100A20001200DEFFE55B25E0243DF8A6F008A607EE
:100A3000055BE55BB404D9E4F55BE55B25E0243DAB
:100A4000F8E6FC08E6FDE55B25E02410F8E2FA088C
:100A5000E2FBC39DEA9C4003020B23E55B25E024F7
:100A600041F8E6FE08E6FFE55B25E02415F9C3E35F
:100A70009F19E39E4003020B23E55B7037EB25E0F3
:100A8000FFEA33FE7C007D03120089EF2432F55A21
:100A9000E43EF5597C007D03AF03AE02120077EF10
:100AA0007802CEC313CE13D8F924E2F558EE34FF02
:100AB000F557802FE55BB4012A25E02410F8E2FE0B
:100AC00008E2FF7C007D03120077EEC313FEEF13F4
:100AD000FF241EF55AE43EF559EF24BAF558EE34DA
:100AE000FFF557E55B25E02414F8E2FE08E2FFC3BA
:100AF000955AEE95595008EF9558EE95575011E5D7
:100B00005B25E02411F9C3E3940A19E39400502310
:100B1000AF5B7401A807088002C333D8FCF45256B7
:100B2000E55B2402FF7401A807088002C333D8FCE8
:100B3000F45256055BE55B64026003020A2A85569F
:100B4000242230040E7556007557147558007559D7
:100B500064800C755600755714755800755964E417
:100B6000FDED25E02458F8E2FE08E2FFED25E02443
:100B700019F9D3E39F19E39E4016ED25E02418F8F8
:100B8000E2FE08E2FFED25E02458F8EEF208EFF26D
:100B9000EDC39402506AE556C313FEE55713FFED0B
:100BA00025E02419F9D3E39F19E39E5023ED75F056
:100BB00008A4247CF8A65608A657E55725E0FFE5CB
:100BC0005633F8ED25E02458C8F208EFF2020C5431
:100BD000ED25E02419F9D3E3946419E3940050035C
:100BE000020C54ED25E02458F9E3C313FE09E31386
:100BF000FFED75F008A4247CF8A60608A60780641B
:100C0000E558C313FEE55913FFED25E02419F9D388
:100C1000E39F19E39E5022ED75F008A4247CF8A60A
:100C20005808A659E55925E0FFE55833F8ED25E0C9
:100C30002458C8F208EFF2802BED25E02419F9D3EF
:100C4000E3949019E39401401BED25E02458F9E367
:100C5000C313FE09E313FFED75F008A4247CF8A686
:100C60000608A6070DED64046003020B51E4FDEDD8
:100C700075F008A4247CF8E6FE08E6FFED25E024E4
:100C800060F8EEF208EFF20DBD04E42220CA030280
:100C90000DB77861E67003020DB7E4786BF6F55393
:100CA00074612553F8E6FF74492553F8A60774616B
:100CB0002553F8E4F60553E553B40AE4786BE6707F
:100CC0000320CA12E4F55374492553F8E4F605539A
:100CD000E553B40AF222E5491202C00CEA100CF105
:100CE000200CF8300D1C400D40500D48600D507028
:100CF0000D5B900D62A000000D66E4FF121BF480F6
:100D0000757F01121BF4806E787C7600087614786B
:100D1000847600087614788C760008766478947669
:100D200000087664786FE64410F6804A787C760096
:100D300008761478847600087614788C7600087625
:100D40006478947600087664786FE654EFF680262F
:100D5000786FE64401F6801E786FE654FEF6801642
:100D6000E4FF121CBD7871A607800B786C7401F249
:100D70008004E4786CF2E54954F064807049E54AF7
:100D8000454B6043E54AFE7C00E4254BFFEC3EFE0C
:100D9000C3EF940AEE9400402EE549540FFDBD0FB9
:100DA00019E4F553E55375F008A4247CF8A6060869
:100DB000A6070553E553B404EB22ED75F008A4240F
:100DC0007CF8A60608A60722439F04E453C6DFE585
:100DD000C600B5C6F375830075820775FD0DE4E5A1
:100DE000FEF4FF75830075820675FD0DE4E5FEB522
:100DF0000704F59E8003759E0078100000D8FC5310
:100E0000C6E043C60843C68075960575970375838B
:100E10000075820475FD0D85FE8F75830075820354
:100E200075FD0DE4E5FEF4FF75830075820275FD26
:100E30000DE4E5FEB50704F595800375958375BE51
:100E40000E5392FE9001007F007E02E4F0A3DFFCCF
:100E5000DEFA78007F00E4F208DFFC78FFE4F6D8E1
:100E6000FD7581D7020E95020000020FF2E493A3F4
:100E7000F8E493A34003F68001F208DFF48029E44C
:100E800093A3F85407240CC8C333C4540F4420C898
:100E9000834004F456800146F6DFE4800B0102042F
:100EA000081020408090167FE47E019360BCA3FF71
:100EB000543F30E509541FFEE493A360010ECF5464
:100EC000C025E060A840B8E493A3FAE493A3F8E453
:100ED00093A3C8C582C8CAC583CAF0A3C8C582C8BF
:100EE000CAC583CADFE9DEE780BE7555077D077492
:100EF000017E00A855088005C333CE33CED8F9FF54
:100F0000ACACECFBE4EF5B7003D555E3ED601D7416
:100F1000017E00A805088005C333CE33CED8F9FF83
:100F2000ACAEECFBE4EF5B70031D80E0AF557401E9
:100F3000A807088002C333D8FCF5AC7401A80508E3
:100F40008002C333D8FCFFF5AD8FAE53AACF85BA6C
:100F50005E53BA0F43BA10E4F559F558F557F556F4
:100F6000121B88E4F55574CC2555F8E675F003A4FA
:100F70002465F582E4341CF583E493740193FA74D8
:100F80000293F91202E68F5D8E5C8D5B8C5AAB5931
:100F9000AA58A957A856C3120226500C855D598538
:100FA0005C58855B57855A560555E555C3940440F2
:100FB000B5AF59AE58AD57AC567802120237E55965
:100FC0002FF559E5583EF558E5573DF557E5563CA0
:100FD000F556AF59AE58AD57FC78101202378FB3A3
:100FE000AF59AE58AD57AC5678081202378FB2855C
:100FF00059B143AA30855EBA75AC0375ADC075AE04
:10100000C022121C137D01E4FF121A907F01121BF3
:10101000F47F01121C7D121D76120003121D69124D
:101020001BAE1216EE121AC6121B2FD2AF751C0180
:10103000E51C24FD601114601924FE602614602A4A
:101040001460702407706F1219C51215FF751C0407
:101050008064D2D8E51D70FC12003E121C94751CF1
:101060000680531204FD8F1C804CD39000C8E0947E
:10107000009000C7E09400400CA3E024FFF0900033
:10108000C7E034FFF0D37896E2940018E294004071
:101090000A08E224FFF218E234FFF29000C4E004F0
:1010A000F070069000C3E004F01214FD1211E08FFE
:1010B0001C8003751C049000D8E0B40124E4786B14
:1010C000F6FF121D76E4F0F518F519000519E5197B
:1010D00070020518B42CF4E518B401EF7F01121D5D
:1010E00076120C7C786CE2640160030210207F01B0
:1010F000121BF4121C30E4F51D53B9FD43CC02124F
:10110000197A53CCFD751C0302102022C0E0C0F0F8
:10111000C083C082C0D075D008C2CF30CD030211C9
:10112000D530CB4720CC447860A6CEE6FFC3948070
:10113000403075F003EFA42444F582E5F03416F551
:1011400083E493FB740193FA7402938B468A47F508
:10115000480548E5487002054714F912005EF5CECF
:1011600080097860E62545F8E6F5CE30CC29786030
:10117000E6C394804015AB460548E548AA4770028F
:10118000054714F912005EF5CE8056786006E62514
:1011900045F8E6F5CE804A20CB47AFCE7860E6FE34
:1011A000702EBF100553809F8037BF20054380609D
:1011B000802FBF5008786FE64401F68024BF600896
:1011C000786FE654FEF680197861A60F1806801134
:1011D000EEC3940A50087860E62461F8A60F7860A0
:1011E00006786B7601D0D0D082D083D0F0D0E032B8
:1011F000E4F55375540812134F121A101213E71224
:101200001B5D9000C0EFF012000EEF60577F0112DF
:101210001AFBAD07AC06D39000C8E094009000C75D
:10122000E09400400FED7802CEC313CE13D8F9FD41
:10123000AC068027300811EDAE047803CEC313CE80
:1012400013D8F9FDAC068013C37869E2940A18E25A
:1012500094005007ECC313FCED13FDAF05AE041270
:1012600002EC8003AF54229000BFE0F553E55360D9
:1012700034E49000CBF0A3F09000CAE004F07006D4
:101280009000C9E004F07F05121AFBD39000CAE079
:101290009F9000C9E09E4014E4FF121821E49000E2
:1012A000C1F07F0322E49000C9F0A3F09000C1E0F8
:1012B0006553600BAF531218219000C1E553F0AF96
:1012C00054227DFFE5227003021349787CE6FE0874
:1012D000E6FFC37821E29F18E29E4010788CE6FE7C
:1012E00008E6FF7825E29F18E29E50707884E6FEBB
:1012F00008E6FFC37823E29F18E29E40107894E648
:10130000FE08E6FF7827E29F18E29E504F7814E22D
:10131000FE08E2FF7811E22FF55718E23EF5567805
:1013200016E2FE08E2FF7813E22FFF18E23EAB0759
:10133000FAEB25E0FFEA33FEC3E5579FE5569E50E2
:10134000035305FAE55725E0FFE55633FEC3EB9F4F
:10135000EA9E50085305F580035305F08D2322E4DF
:10136000F555E55525E02410F8E2F55608E2F55765
:10137000AE56FFE4FCFD7B64FAF9F8120109C006E1
:10138000C007E55525E02497F582E43400F583E0B5
:10139000FEA3E0FFFBAA06E4F9F8D007D00612018D
:1013A00094E55525E02420F8EEF208EFF2AE56AFB2
:1013B00057E4FCFD7B64FAF9F8120109C006C00786
:1013C000E55525E02497F582E43400F583E0FEA39B
:1013D000E0FFFBAA06E4F9F8D007D006120194E575
:1013E0005525E02418F8EEF208EFF20555E55564AE
:1013F00004600302135222E4F555E55525E0240864
:10140000F8E2FE08E2FFE55525E02400F8E2FC08DA
:10141000E2FDC39FEC9E5048E55525E02409F8C342
:10142000E29DF55718E29CF556FEAF57E4FCFD7BB4
:1014300064FAF9F8120109C006C007E55525E02451
:1014400097F582E43400F583E0FEA3E0FFFBAA06F3
:10145000E4F9F8D007D0061201948E588F5980090C
:10146000E4F556F557F558F559D3E5599405E5587F
:1014700094004002D2080555E55564046003021348
:10148000EA22E4FFFEEE75F008A4247DF8E624FBD2
:10149000FD18E634FFFCEE25E02421F9C3E39D1995
:1014A000E39C401DEE25E02425F9C3E3940A19E3EB
:1014B0009400400D7401A806088002C333D8FC4292
:1014C00007EE75F008A4248DF8E624FBFD18E63439
:1014D000FFFCEE25E02425F9C3E39D19E39C4021A0
:1014E000EE25E02421F9C3E3940A19E394004011A6
:1014F000EE2402FD7401A805088002C333D8FC4223
:10150000070EEE640260030214758F2522E4F55382
:10151000E55375F008A4247EFFE55325E02418F870
:10152000E2FC08E2FD121CA9E55375F008A4248032
:10153000FFE55325E02410F8E2FC08E2FD121CA9A7
:10154000E55375F008A42482FBC003E55325E0248D
:1015500000F8E2FE08E2FFE4FCFDE55325E025E0AB
:10156000249CF8120269EF2BFFEE3AFEED39FDECF8
:1015700038FC7804120237AD07AC06D007121CA95C
:101580000553E553C394044087786FE6F52022E4C1
:10159000FFFEEE75F008A4247CF8E6FC08E6FDEEFC
:1015A00025E02421F9C3E39D19E39C401DEE25E0CD
:1015B0002425F9C3E3940A19E39400400D7401A8AB
:1015C00006088002C333D8FC4207EE75F008A42455
:1015D0008CF8E6FC08E6FDEE25E02425F9C3E39D42
:1015E00019E39C4021EE25E02421F9C3E3940A1974
:1015F000E394004011EE2402FD7401A80508800266
:10160000C333D8FC42070EEE640270868F2222E4B8
:10161000F553F554121C30E49000BFF09000C1F077
:10162000A3F09000C9F0A3F0A3F0A3F09000DBF0CA
:10163000A3F07895F208F2F521786CF2FFEF25E03F
:101640002497F582E43400F583E0FCA3E0FD9000EC
:10165000D3E02DF09000D2E03CF00FBF02DF90000D
:10166000D2E0FEA3E0FF7C007D0A1200899000D248
:10167000EEF0A3EFF0120EDA1208931207097F0AB8
:10168000121AFB9000C7EEF0A3EFF0121C94220890
:101690002A00E600E600AA010E0832000000000061
:1016A00000000008CC020401030506FFFF04D4007B
:1016B00000000060460097018601C2006E008200B3
:1016C00046004600460046010204080506070800D9
:1016D000000000000000000000000000000000000A
:1016E00000000000000000000000000000000000FA
:1016F0000000000000000000000000000000E4F511
:1017000053786CF6FF121CBD8F53E553BFFF06786C
:101710006D76028004786D76FF786E7601E408F6C7
:10172000787176FF787CF60876147884F60876145B
:10173000788CF60876647894F6087664FFEF75F096
:1017400008A4247EF8E4F608F6EF75F008A42480D7
:10175000F8E4F608F6EF75F008A42482F8E4F60839
:10176000F60FBF04D875456C22C0E0C0F0C083C03E
:1017700082C0D075D000C000C004C005C006C0073C
:10178000C28D758CD8758AF0051BE51B7002051A91
:10179000AE1AFF7C007D64120089ED4C7021900030
:1017A000C3E0FEA3E0FFD3940AEE94004006A3EE4C
:1017B000F0A3EFF09000C3E4F0A3F0F51AF51BD00E
:1017C00007D006D005D004D000D0D0D082D083D0AE
:1017D000F0D0E032FE0000FE0008FE0008FE00101F
:1017E000FE0010FE0018FE0018FE0020FE0020FE85
:1017F00000280000AC0000B40000BC0000C4FE00E3
:1018000000FE0008FE0050FE00400100C300002260
:101810000100BF0100D60100BF0100D8FE00950104
:1018200000AF0100B70100C0FE0058FE0060FE00DE
:10183000859000D8E0705504F0E4FEFDFC7401A82A
:1018400004088002C333D8FCF9FB9000C1E05BB50B
:101850000313EC2404FA7401A802088002C333D8ED
:10186000FC42068003E94206EF5BB50305E9420549
:101870008011EC2404FB7401A803088002C333D850
:10188000FC42050CBC02B6EE5D786CF622E4FBEB84
:1018900025E025E024BCF812025DEF2418FFEE34A9
:1018A000FCFEED34FFFDEC34FFFCEB25E025E024ED
:1018B0009CF8120276EB25E02400F87403F2087419
:1018C000E8F2EBC394045017EB25E02410F8E4F29F
:1018D00008F2EB25E02408F87403F20874E8F20B30
:1018E000BB04AC22C0E0C0F0C083C082C0D075D0C1
:1018F0001053B9FD755F0074CC255FF8E675F003F1
:10190000A42465F582E4341CF583E493740193FA0E
:10191000740293F91202E6E55F25E025E024ACF8B5
:10192000120276055FE55FC3940440CB751D00D0BD
:10193000D0D082D083D0F0D0E032A907E4FDFC748F
:10194000017E00A804088005C333CE33CED8F9FF4A
:10195000E9FB7A00EAEF5B701DEC2402FF74017E64
:1019600000A807088005C333CE33CED8F9FFEE5A5E
:10197000FEEF5B4E600D7401A804088002C333D8EB
:10198000FC42050CBC02B8AF052253E3FDC2D943AB
:101990009F10E4FF0FBFFFFC539FFD75BE0C4387F4
:1019A00060759242C28D4387030000000075BE0E31
:1019B000C28D439F10E4FF0FBFFFFC439F02E4FF73
:1019C0000FBFFFFC539FEF75927643E302E4F5BF30
:1019D000F5B9D2D922E4FFFE74CC2EF8E6901D7F33
:1019E0009342070EBE04F1EF42D4EF42F4EF42E41B
:1019F000EFF452DC75AA3B75BA0C43BA4043B920E8
:101A000053B9BF8FB4E4F5B375B24E75B12075BB51
:101A1000FF75A950F5AB75AC0375ADC075AEC022AE
:101A20007820E2FE08E2FF8E55F5567D01ED25E0B7
:101A30002420F8E2FA08E2FBC39556EA95555004D3
:101A40008A558B56D3EB9FEA9E4004AE02AF030D3E
:101A5000BD02DA786AE555F208E556F27868EEF2EA
:101A600008EFF222121B88E4F55B74CC255BF8E6E4
:101A700075F003A42465F582E4341CF583E49374C3
:101A80000193FA740293F91202E6E55B25E025E082
:101A900024ACF8120276055BE55BC3940440CB22CC
:101AA000E4FE7C0474CC2CF8E6901D7F9342060C77
:101AB000BC06F1EF6005EE42D48004EEF452D4EEA1
:101AC000F4FF52F4EE42E4ED6005EE42EC8003EFE9
:101AD00052ECEF52DC227E007FAFE4FDED25E024E6
:101AE000D4F582E4341BF583E493F4601DED25E026
:101AF00024D5F582E4341BF583E493FCEF2DF582C5
:101B0000E43EF583ECF00DBD10D2227555007556FC
:101B1000AF7B017A00BFFF057F017E0022E5562FD3
:101B2000F582E43555F583E07A00FB9000C5E0FCD2
:101B3000A3E0FDAF037E00120077AA06AB072243A5
:101B4000F80875CD4053CC7F43CC4043CC2043CCE8
:101B50001043CC0453CCFD43CB0243CB0153CBBF4A
:101B600043E80843F50343900343ED0322120B328D
:101B700012157F1212B21209E31214729000BFE024
:101B8000700D852255E5235255E524525580038575
:101B90002555AF5512192A2275BF0F00000000000D
:101BA00000000000000000000000000000D2D85338
:101BB000B9FD43B901E5B930E1FBE4F5BF22438942
:101BC00001C28DD2A953B8FDE4F51AF51B9000C3EC
:101BD000F0A3F0A3F0A37464F0758CD8758AF0D2EA
:101BE0008CD2AF22000201010201030104050506A7
:101BF00006060702080A09020A020B280C010D0357
:101C00000E01FF01E4FE7D0474CC2DF8E6901D7FEB
:101C10009342060DBD06F1EF6004EE428022EEF421
:101C2000528022E4F5E3439F10439F02FF0FBFFF62
:101C3000FC539FEF75BE0EE4F5BFF5B975927622A1
:101C400053BAFEE5B920E004E51D6005E5B930E1D1
:101C5000FBE4F5BF53B9FE53B9FD22AB07AA06D387
:101C6000EB9DEA9C4007EB9DFFEA9CFE22C3ED9BA7
:101C7000FFEC9AFE22FF1CD1FF1CE4FF1CF7FF1DA6
:101C80000AFF1D1DFF1D30FF1D43FF1D56EF6005A0
:101C900043D504800353D5FB53F5FB53E5FBE49098
:101CA00000D8F02275BF0F43B92053B9FD43BA01E4
:101CB000751D0143B901D2D822AB07AF04AE05C2EE
:101CC000AFA803A607E804F8A606D2AF22E4FFF502
:101CD00082F5837420FEE493F42FFFA3EEB583F620
:101CE0002253B9EF78D5A6B708A6B608A6B578D41A
:101CF00012025D2253B9EF78D5A6EB08A6EA08A632
:101D0000E978D412025D2253B9EF78D5A6F308A67C
:101D1000F208A6F178D412025D2253B9EF78D5A665
:101D2000FB08A6FA08A6F978D412025D2243B9107E
:101D300078D5A6B708A6B608A6B578D412025D2253
:101D400043B91078D5A6EB08A6EA08A6E978D4121C
:101D5000025D2243B91078D5A6F308A6F208A6F1D1
:101D600078D412025D2243B91078D5A6FB08A6FAF2
:101D700008A6F978D412025D22C2DA53D80F43D8EC
:101D8000D0D2D8D2D922EF6003D29222C2922201BD
:101D900002040810204080EDFFFFFFFFFFFFFFFF60
:101DA000FFFFFFFFFFFFFFFFFFFFFFFFFFFFFFFF43
:00000001FF
